:020000020000FC
:1000000064C01895189574C01F01080808001F01E6
:10001000F8F8F8003F01040404003F01FCFCFC0078
:100020007F01020202007F01FEFEFE00FF010101CE
:100030000100FF0200FFFF00FF0100000000FF02BF
:10004000FF010000FF0100000000FF0200FF0100AF
:10005000FF0100000000FF040101FF00FF0100009C
:100060000000FF04FF000100FF0100000000FF048A
:1000700001FF0000FF0100000000FF01FF00FF0082
:100080000101FF000000190100000000010101FF53
:10009000000019010000000001010001FF0019012A
:1000A000000000000101FF00000019010000000035
:1000B000010101FF00001901000000000101FF0122
:1000C000FF001901000000000000F0E0E8E021E07E
:1000D00001E0802F0FEF07BB01E003BF0FEF02BF6E
:1000E00002E009BFAA24BB24CC2466277894FFCF62
:1000F0002A95203039F58A95803009F020C0872F65
:100100006030C9F4C895602DE395603031F4F0E0BB
:10011000E8E0AA24BB24CC24F5CFC895702DE39544
:10012000C895702CE395C895802CE395C895902CC4
:10013000E395E395872F6A95A70CB80CC90C3A2D67
:100140004B2D5C2D10E0303011F4116001C03A9558
:10015000403011F4126001C04A95503011F414601F
:0C01600001C05A9518BB0FEF02BF1895A4
:00000001FF
