:0800000015C0FECFFDCFFCCFBF
:10000800FBCFFACFF9CFFFC0F7CFF6CFF5CFF4CFBC
:10001800F3CFF2CFF1CFF0CFEFCF00000200060010
:1000280022000000F894EE27ECBBF1E0FBBFEBBF29
:10003800E5BFE6BFF8E1F1BDE1BD8DE0A2E0BB2779
:10004800ED938A95E9F780E092E0A0E6ED930197B9
:10005800E9F7E4E2F0E085919591009761F0A591C8
:10006800B59105901590BF01F00105900D9201978B
:10007800E1F7FB01F0CFEFE5EDBFE2E0EEBFC0EE48
:10008800D0E023C1A091E000A03011F0E1E001C070
:10009800E0E0E03011F4D89801C0D89AA091E100CE
:1000A800A03011F0E1E001C0E0E0E03011F4D998AF
:1000B80001C0D99AA091E200A03011F0E1E001C09E
:1000C800E0E0E03011F4DA9801C0DA9AA091E30098
:1000D800A03011F0E1E001C0E0E0E03011F4DB987D
:1000E80001C0DB9AA091E400A03011F0E1E001C06A
:1000F800E0E0E03011F4DC9801C0DC9AA091E50062
:10010800A03011F0E1E001C0E0E0E03011F4DD984A
:1001180001C0DD9AA091E600A03011F0E1E001C035
:10012800E0E0E03011F4DE9801C0DE9AA091E7002B
:10013800A03011F0E1E001C0E0E0E03011F4DF9818
:1001480001C0DF9AA091E800A03011F0E1E001C001
:10015800E0E0E03011F4A89801C0A89AA091E90065
:10016800A03011F0E1E001C0E0E0E03011F4A9981E
:1001780001C0A99AA091EA00A03011F0E1E001C005
:10018800E0E0E03011F4AA9801C0AA9AA091EB002F
:10019800A03011F0E1E001C0E0E0E03011F4AB98EC
:1001A80001C0AB9AA091EC00A03011F0E1E001C0D1
:1001B800E0E0E03011F4AC9801C0AC9AA091ED00F9
:1001C800A03011F0E1E001C0E0E0E03011F4AD98BA
:1001D80001C0AD9AA091EE00A03011F0E1E001C09D
:1001E800E0E0E03011F4AE9801C0AE9AA091EF00C3
:1001F800A03011F0E1E001C0E0E0E03011F4AF9888
:1002080001C0AF9A08950A921A92FA926A937A9361
:100218008A939A93AA93BA93EA93FA93EFB7EA93D5
:10022800EDE7E2BF552021F42DDF542C442401C012
:100238005A94E991EFBFF991E991B991A9919991EE
:10024800899179916991F9901990099018954420AC
:10025800F1F708951A93FBDF10E01F3040F4E12F07
:10026800F0E0E052FF4FA0E0A0831F5FF6CF498087
:1002780018812296089582D00FE010E0E1E0E09323
:10028800EF0020E030E02031E0E03E07C4F4A0EECB
:10029800B0E0A00FB11FE0E0EC93A0EEB0E0A20F39
:1002A800B31FE1E0EC93D8011196E0E1F0E058D0FB
:1002B8008F01EEE14E2ECBDF2F5F3F4FE4CFEEE113
:1002C800EA93C8DF60D0249608952497E0E0E88395
:1002D800E983EA83EB8300E010E005D07894CBDF74
:1002E800FECF0000FECFE0E0EBBBEFEFEABBE0E0C3
:1002F800E8BBE7BBE5BBEFEFE4BBE0E0E2BBE1BB9B
:10030800E7B9E6B9E5E0E3BFEDE7E2BFE0E0E1BF6A
:10031800EFBDEEBDEDBDECBDE5BDE4BDEBBDEABD99
:10032800E9BDE8BDE5BFE6BFE2E0E9BFE0E8E8B95E
:100338000895F195E195F04008950024112490E185
:10034800AA0FBB1F001C111C0E1A1F0A18F40E0E50
:100358001F1E01C0A1609A9599F7FD01D00108956B
:10036800E894B7FF04C0A095B09511966894F7FD7E
:10037800E0DFE3DFFD010EF4DCDF08953A932A9312
:100388001A930A9308953B812A8119810881089557
:00000001FF
