:0A00000025C0FECFFDCFFCCFFBCFE3
:10000A002DC1F9CFBDC0F7CFF6CFF5CFF4CFF3CFDF
:10001A00F2CFF1CFF0CFEFCFEECFEDCF1027E8033D
:10002A0064000A0001000010000110000100000035
:10003A004547300D004547310D00010004003800E6
:10004A000000F894EE27ECBBE5BFF8E1A4B7A77F60
:10005A00A4BFF1BDE1BD8DE0A2E0ED938A95E9F779
:10006A0080E8A0E6ED938A95E9F7E4E4F0E085916B
:10007A009591009761F0A591B59105901590BF01F2
:10008A00F00105900D920197E1F7FB01F0CFE0E056
:10009A00E3BBE4BBE5BBEFEDEDBFC0E800C007D0B2
:1000AA00E8EEF3E0FA93EA935CD1FACFFFCFE0E807
:1000BA00E6BDE0E0E6BDEBBBE1E0EABBE8BBEEEFA4
:1000CA00E7BBECE7E2BBE0E0E1BBE0BFE3BFE2BFD6
:1000DA00E6BFECBFEFBDE3E0EEBD12D1E0E0E5BD67
:1000EA00E4BDEBBDEABDE9BDE8BDEBBFE5BFE0E8B5
:1000FA00E9BFE0E0EDB9EBB9E8E9EAB9E6E0E3B96E
:10010A00E0E0E2B9E3E3E9B9E0E8E8B97894089510
:10011A00E42DF0E0309759F4A881AF3411F4E1E00E
:10012A004E2EA881A33511F4E5E04E2E28C0E13009
:10013A00A0E0FA0741F4A881AB3419F4E2E04E2EAC
:10014A0001C044241CC0E230A0E0FA0751F4A8819F
:10015A00AD3029F4E1E0E0938000E093810044248B
:10016A000EC0E530A0E0FA0751F4A881A13311F4DA
:10017A0038D004C0A881A03309F429D04424BEC0D1
:10018A00C4D050D11BB10CB1E12FEC7181F4E32D35
:10019A00EE5700833394E8E0E31509F433245394CB
:1001AA00E8E0E51511F45524989A0A93B1DF3DD198
:1001BA00BAD01895E0E4F9E161E070E0E0938A00D2
:1001CA00F0938B0060938C0070938D000895B9D0E2
:1001DA00E0938A00E0938B00E0938C00E0938D001B
:1001EA000895EEE1E0938E00E5DF0895829902C05A
:1001FA00EEDF15C0839902C0F4DF11C0849903C0F1
:10020A00A4D0E26009C0859903C09FD0E46004C00D
:10021A00869905C09AD0E860E0938E00CBDF0895F6
:10022A00E881F981E491E03059F0E881F981E491BB
:10023A00EA9360D0E881F9813196E883F983F0CFB7
:10024A002296089582D0E03019F4EAE3F0E002C081
:10025A00EFE3F0E0FA93EA93E3DF089556D050D043
:10026A00C5DF76D0D9D0ECF473D0E8E5F2E060E0EF
:10027A0070E0B0D0CDD049F46BD0A93BEBE0BE071B
:10028A00E0E08E07E0E09E070CF002C0E0E001C06B
:10029A005CD0E8BBAAE8B2D0319760407040B3D0D6
:1002AA0002C04FD0E8BBE0919000EF5FE09390006E
:1002BA00E0918F00A0918E00EA1721F4A09190009E
:1002CA00AA3021F4BFDF41D0E0938F00A0919000C3
:1002DA00AA3069F4E0E0E0939000A0918E00A0308B
:1002EA0019F036D099D00CF001C0C79A01C0C7984E
:1002FA001AD018955D9BFECFE881ECB92196089536
:10030A00EFECEDBDEBE2ECBD08950A921A92FA9277
:10031A006A937A938A939A93AA93BA93EA93FA93EB
:10032A00EFB7EA930895E991EFBFF991E991B9918D
:10033A00A9919991899179916991F9901990099066
:10034A000895E0E0E0938E000895E0918E0008950C
:10035A00A0918A00B0918B0080918C0090918D00C1
:10036A000895E991F991309639F080ED97E0019777
:10037A00F1F7A8953197C9F70895F09560957095AA
:10038A00E195FF4F6F4F7F4F08953F934F935F93D0
:10039A00002411244427552730E2AA0FBB1F881FC7
:1003AA00991F001C111C441F551F0E1A1F0A460BC9
:1003BA00570B28F40E0E1F1E461F571F01C0A160BF
:1003CA003A9559F7FD01BC01D001CA015F914F91DD
:1003DA003F910895E89497FF09C0A095B09580953C
:1003EA009095AF5FBF4F8F4F9F4F689477FDC5DFE2
:1003FA00CCDFFD01BC010EF4C0DF0895ED91FD9143
:10040A006D917D9108957E936E93FE93EE93089578
:10041A00309760407040089500240A160B060806BB
:10042A00090608951A930A9308950991199108954E
:00000001FF
