:0200000028C016
:10000200FECFFDCFFCCFFBCF06C1F9CFD3C0F7CFD8
:10001200F6CFF5CFF4CFF3CFF2CFF1CFF0CFEFCFD2
:10002200EECFEDCF1027E80364000A0001000010B4
:1000320000011000010000000000000053300053D6
:100042003100010004003800040006003A000000FC
:10005200F894EE27ECBBE5BFF8E1A4B7A77FA4BFF5
:10006200F1BDE1BD8DE0A2E0ED938A95E9F780E86C
:10007200A0E6ED938A95E9F7E4E4F0E085919591A5
:10008200009761F0A591B59105901590BF01F0011F
:1000920005900D920197E1F7FB01F0CFE0E0E3BBA1
:1000A200E4BBE5BBEFEDEDBFC0E800C007D0E8EE72
:1000B200F3E0FA93EA930AD1FACFFFCFE0E8E6BD84
:1000C200E0E0E6BDEBBBE1E0EABBE0E0E8BBE7E095
:1000D200E7BBE4E0E2BBE0E0E1BBE0BFE3BFE2BFDD
:1000E200E6BFECBFEFBDE4E0EEBDCED0E5BDE0E0A3
:1000F200E4BDEBBDEABDE9BDE8BDEBBFE5BFE0E8AD
:10010200E9BFE0E0EDB9EBB9E8E9EAB9E6E0E3B965
:10011200E0E0E2B9E3E3E9B9E0E8E8B97894089508
:10012200E881EA93ABD0E42DF0E0309759F4A8814E
:10013200AF3411F4E1E04E2EA881A53411F4E3E0CE
:100142004E2E37C0E130A0E0FA0741F4A881AB346B
:1001520019F4E2E04E2E01C044242BC0E230A0E0AC
:10016200FA0751F4A881AD3029F4E1E0E093800070
:10017200E093810044241DC0E330A0E0FA0741F47B
:10018200A881A73419F4E4E04E2E01C0442411C022
:10019200E430A0E0FA0769F4A881A13311F4E1E0A8
:1001A20004C0A881A03321F4E0E0EA931DD01ED060
:1001B200442468C06FD096D01BB10CB1E12FEC7112
:1001C20081F4E32DEE5700833394E8E0E31509F45C
:1001D20033245394E8E0E51511F45524989A0A93D0
:1001E2009FDF83D065D0189578804CC0E4E16E2EF5
:1001F2000895E881F981E491E03059F0E881F981CC
:10020200E491EA933BD0E881F9813196E883F9835E
:10021200F0CF229608953ED037D0E61518F46A94AE
:10022200C19A03C0C198C2987724E1E0E71511F49E
:10023200C29A01C0C29882990FC0992061F4E1E08C
:100242009E2EE71519F4EEE3F0E002C0E1E4F0E0DF
:10025200FA93EA93CEDF01C09924E0918A00EF5F1E
:10026200E0938A00A0918A00AA3029F4E0E0E093AA
:100272008A00C09A01C0C0981BD018955D9BFECF22
:10028200E881ECB921960895E3EFEDBDEAECECBD0F
:10029200E0E008950A921A92FA926A937A938A9304
:1002A2009A93AA93BA93EA93FA93EFB7EA930895CB
:1002B200E991EFBFF991E991B991A9919991899148
:1002C20079916991F990199009900895E991F991BC
:1002D200309639F080ED97E00197F1F7A8953197C4
:1002E200C9F708951A930A930895099119910895E7
:00000001FF
