:0800000025C0FECFFDCFFCCFAF
:10000800FBCF17C1F9CFBDC0F7CFF6CFF5CFF4CFEF
:10001800F3CFF2CFF1CFF0CFEFCFEECFEDCF102768
:10002800E80364000A00010000100001100001004C
:1000380000004547300D004547310D000100040020
:1000480038000000F894EE27ECBBE5BFF8E1A4B750
:10005800A77FA4BFF1BDE1BD8DE0A2E0ED938A9535
:10006800E9F780E8A0E6ED938A95E9F7E4E4F0E0A3
:1000780085919591009761F0A591B591059015909E
:10008800BF01F00105900D920197E1F7FB01F0CF58
:10009800E0E0E3BBE4BBE5BBEFEDEDBFC0E800C0CB
:1000A80007D0E8EEF3E0FA93EA9337D1FACFFFCF1F
:1000B800E0E8E6BDE0E0E6BDEBBBE1E0EABBE8BBBB
:1000C800EEEFE7BBECE7E2BBE0E0E1BBE0BFE3BF9C
:1000D800E2BFE6BFECBFEFBDE4E0EEBDF1D0E0E08B
:1000E800E5BDE4BDEBBDEABDE9BDE8BDEBBFE5BFDD
:1000F800E0E8E9BFE0E0EDB9EBB9E8E9EAB9E6E044
:10010800E3B9E0E0E2B9E3E3E9B9E0E8E8B9789413
:100118000895E42DF0E0309759F4A881AF3411F434
:10012800E1E04E2EA881A33511F4E5E04E2E28C05B
:10013800E130A0E0FA0741F4A881AB3419F4E2E019
:100148004E2E01C044241CC0E230A0E0FA0751F44E
:10015800A881AD3029F4E1E0E0938000E0938100CC
:1001680044240EC0E530A0E0FA0751F4A881A13379
:1001780011F42ED004C0A881A03309F423D044245C
:100188009DC0A3D0FFD01BB10CB1E12FEC7181F45D
:10019800E32DEE5700833394E8E0E31509F43324A4
:1001A8005394E8E0E51511F45524989A0A93B1DFC1
:1001B800ECD099D01895E4E5F1E0E0938A00F0934B
:1001C8008B0008959ED0E0938A00E0938B000895F9
:1001D800EEE1E0938C00EFDF0895829902C0F2DF30
:1001E80015C0839902C0F4DF11C0849903C08DD073
:1001F800E26009C0859903C088D0E46004C086998C
:1002080005C083D0E860E0938C00D5DF0895E881CD
:10021800F981E491E03059F0E881F981E491EA93B9
:1002280049D0E881F9813196E883F983F0CF2296A5
:1002380008954BD045D0D1DF6BD0A0D0BCF468D0A6
:10024800E6E9F0E08DD0309729F462D0A93BEBE0E5
:10025800BE070CF002C0E0E001C057D0E8BBAAE836
:10026800ED91FD913197FE93EE9302C04AD0E8BB21
:10027800E0918D00EF5FE0938D00A0918D00AA3092
:10028800B1F4E0E0E0938D0040D0E03031F4EAE3EF
:10029800F0E0FA93EA93BBDF09C0EFE3F0E0FA93EA
:1002A800EA93B5DF35D06AD00CF4C79A01C0C79875
:1002B8001AD018955D9BFECFE881ECB92196089578
:1002C800E3EFEDBDEAECECBD08950A921A92FA92BA
:1002D8006A937A938A939A93AA93BA93EA93FA932E
:1002E800EFB7EA930895E991EFBFF991E991B991D0
:1002F800A9919991899179916991F99019900990A9
:100308000895E0E0E0938C000895E0918C00089552
:10031800A0918A00B0918B000895E991F9913096E7
:1003280039F080ED97E00197F1F7A8953197C9F773
:100338000895F195E195F04008950024112490E185
:10034800AA0FBB1F001C111C0E1A1F0A18F40E0E50
:100358001F1E01C0A1609A9599F7FD01D00108956B
:10036800E894B7FF04C0A095B09511966894F7FD7E
:10037800E0DFE3DFFD010EF4DCDF089500240A1658
:100388000B0608951A930A930895099119910895EF
:00000001FF
