:0E00000021C0FECF50C0FCCFFBCF7EC05AC047
:10000E00F8CFF7CFF6CFF5CFF4CFF3CFF2CFF1CFC6
:10001E00F0CFEFCFEECFEDCF200004000A00FF00AF
:10002E000307020506090408010C0A0B0D0E010058
:10003E0007002C000000F894EE27ECBBE5BFF8E1BA
:10004E00A4B7A77FA4BFF1BDE1BD8DE0A2E0ED9303
:10005E008A95E9F780E8A0E6ED938A95E9F7ECE357
:10006E00F0E085919591009761F0A591B59105907D
:10007E001590BF01F00105900D920197E1F7FB017C
:10008E00F0CFE0E0E3BBE0E0E4BBE0E0E5BBEFEDAA
:10009E00EDBFC2E9D0E025C1EA93EFB7EA93EDECEC
:1000AE00E2BFE2E0E8BFE9B7E260E9BFE991EFBF86
:1000BE00E9911895A9D27BD3F894A0E0B0E0B2D222
:1000CE00E0E8E8BFE9B7ED7FE9BFE9B7E068E9BF6F
:1000DE00EFE13E2EA52DAF5FEA2FEF705E2E55207D
:1000EE0039F400E010E0A7D21CF40F5F1F4FFBCFD6
:1000FE0055D0789464D3A3D2189586D2F8943A94B6
:10010E00E8E2F0E033D3A32DA8D2EA17FB0751F4AF
:10011E00A895E9B7EF77E9BFE0E8EBBFEABFD7D024
:10012E000ED00AC0E32DA0E0B0E099D2EE0FFF1F73
:10013E00AE0FBF1F77D232D0789481D2189537D3B5
:10014E002394EAE2F0E0E4912E1630F1222400E04E
:10015E0010E071D274F4F801EE560E2EE081AE2F3F
:10016E00F801EF55E081EA0FA02DEC930F5F1F4FC2
:10017E00F0CF4A94442081F400E010E05CD254F4B5
:10018E00F801EF55AE2FF801E055E081EC930F5FCB
:10019E001F4FF4CF472C772412D30895A0919200CD
:1001AE003A1611F4E1E001C0E0E0FAD2ABB3A0F9E7
:1001BE00ABBBA09193003A1611F4E1E001C0E0E070
:1001CE0050D2A4F9A2BBA09194003A1611F4E1E02A
:1001DE0001C0E0E046D2A5F9A2BBA09195003A1667
:1001EE0011F4E1E001C0E0E03CD2A6F9A2BBA0917F
:1001FE0096003A1611F4E1E001C0E0E035D2A0F924
:10020E00A8BBA09197003A1611F4E1E001C0E0E01E
:10021E002BD2A1F9A8BBA09198003A1611F4E1E0F7
:10022E0001C0E0E021D2A2F9A8BBA09199003A1634
:10023E0011F4E1E001C0E0E017D2A3F9A8BBA09150
:10024E009A003A1611F4E1E001C0E0E00DD2A4F9F3
:10025E00A8BBA0919B003A1611F4E1E001C0E0E0CA
:10026E0003D2A5F9A8BBA0919C003A1611F4E1E0C7
:10027E0001C0E0E0F9D1A6F9A8BBA0919D003A1605
:10028E0011F4E1E001C0E0E0EFD1A7F9A8BBA09125
:10029E009E003A1611F4E1E001C0E0E0E2D1A0F9CF
:1002AE00A2BBA0919F003A1611F4E1E001C0E0E07C
:1002BE00D8D1A1F9A2BBA091A0003A1611F4E1E0A9
:1002CE0001C0E0E06DD2ABB3A1F9ABBB0895E0E0A5
:1002DE00E8BB90989198949895989698D898D998B4
:1002EE000895E0E8E6BDE0E0E6BDE0E8E9BFE0E065
:1002FE00EDB9E0E8E8B9E7E0EBBBE3E0EABBE7E045
:10030E00EBBBE0E0E8BBEFEFE7BBE0E0E2BBE3E72F
:10031E00E1BBEFEFE2BBE0E0E0BFE3E0E3BFE0E034
:10032E00E2BFE6BFECBFEFBDE2E0EEBDE0E0EDBD4B
:10033E00ECBDE5BDE4BDEBBDEABDE9BDE8BDE0E861
:10034E00EBBFECE0E5BFE0E8EABFEEE1E1BDEEE0D9
:10035E00E1BD0BD0789423D18AD1EDD088D1ABD02A
:10036E0086D15ED084D1F7CFFFCF1A9310E01F3025
:10037E0040F4A2E97FD1A1EA7DD1A0EB7BD11F5F32
:10038E00F6CFEAE04E2EE5E07E2E19910895772005
:10039E00F1F708951A93FBDF10E01F3020F4A0EB65
:1003AE0069D11F5FFACF7980188122960895A981AD
:1003BE00BA81109714F01F970CF008C0A981BA816A
:1003CE00A25CBF4FE2D1E055A881A0832396089589
:1003DE001A9310E0EA81FB8151D1AE17BF074CF49E
:1003EE00E12FAC81AE0FEC91E055A981A0831F5F88
:1003FE00F1CF188125960895EE8142D1C8DFED81A7
:10040E00EA93EC81FD813ED1E1EE3FD1EA81EA93A0
:10041E00E981FA8137D1EFE138D139D128960895A3
:10042E002E978EE0A0E0B0E0EEE2F0E0CBD1BFD1AF
:10043E0015E030D1EFE130D1EFE127D128D100E046
:10044E00043178F531D1EC2FE25F31D134D13BD18B
:10045E0040D147D1EC2FE75F2AD1CEDF25D1EC2F4B
:10046E00EA5F25D1EC2FE95F42D1C6DF1DD1EC2F1B
:10047E00EC5F3DD1EC2FE75F1AD1BEDF15D1EC2F2B
:10048E00EA5F15D126D12DD116D11DD1EC2FEF5EFD
:10049E000ED1B2DFE02FE370E13009F411500F5F9F
:1004AE00CFCF1A9377DFE1EEF7D0E1EEEED0EFD0BB
:1004BE0083D16096089579D1EDD0E9D010E0143053
:1004CE0060F5DCD0A35BBF4F60D10E2FE02FAAE00A
:1004DE003CD13E2F20E0223170F40DD110D1E150ED
:1004EE00BED0D0D00CD1E2500ED109D1E3500BD1F9
:1004FE000CD12F5FF0CF20E0223168F4FCD00AD16E
:10050E00E15001D107D1E250FED004D1E350FBD02F
:10051E00FCD02F5FF1CF1F5FD2CFBCD0B8D03CC084
:10052E00E881E093B400E093B900E093BE00EFE001
:10053E007E2E2196089539D1ADD0E2E0EA93F0DF18
:10054E0011E0183020F500E00530F8F4E8E198D01D
:10055E001EDFA02FAC5FE5E006D13E2F20E023305A
:10056E0080F4A22FE5E0E6D0E30FE055AEEFA083D6
:10057E00A22FE5E0DFD0E00FE055A2E0A0832F5FD1
:10058E00EECFEFE07E2E0F5FDFCF1F5FDACFE0E022
:10059E0077D0EEEFEA93C4DF0DD12496089507D1FC
:1005AE0079D010E01F3030F4A0EBA10FE5E0EC9312
:1005BE001F5FF8CFE6E07E2E00E00430B0F410E0CE
:1005CE001F3088F4EFE05CD059D0AFD0ACEFA083F1
:1005DE00E4E07E2EDCDE52D0A8D0A4E0A083E4E0DE
:1005EE007E2E1F5FEDCF0F5FE8CF54D010E01F308F
:1005FE0030F4A0EBA10FEBEFEC931F5FF8CFE6E02A
:10060E007E2E48D0DCD008950A921A92FA926A93FE
:10061E007A938A939A93AA93BA93EA93FA93EFB73B
:10062E00EA930895AED0AFEFBFEFA4D0EA1BFB0B59
:10063E00FDBDECBD08950F30E0E01E070895E99171
:10064E00EFBFF991E991B991A99199918991799118
:10065E006991F990199009900895B0E00895F0E02D
:10066E0008959ED0A2B308959BD0A8B30895ECE050
:10067E00EA9390CEA10FE0E0EC930895A12FEDCF79
:10068E00EA9388CEFA93EA930895EA93A1CEE1E035
:10069E007E2E0895E1E0F4CFE093B000EC2FE45FFE
:1006AE00EA93E4E0F0E0EECFE12FD9DFEBCFEA936F
:1006BE00E4E0F0E0E7CFEC2FE15FEA93E2E0F0E078
:1006CE00E1DF9ADEF1CFEC2FE45FEA93E2E0F0E0B7
:1006DE00D9CFEC2FE35FEA93E2E0F0E0D3DF8CDEDC
:1006EE00E3CFEC2FE65FEA93E2E0F0E0CBCFEA93C4
:1006FE00E2E0F0E0C7CF4BDEE22FB1DFC3CF0A93CB
:10070E0056DEE22F0895ABDFBDCFE0E0EA934FDE79
:10071E00732E0895E02FA3DFA0E0B1E02BD0EA1BEB
:10072E00FB0BEA9344DEE22F0895AE5ABF4F2DD055
:10073E00E05508950A2EAA1BB9E003C008F4A00DD7
:10074E00A695E795BA95D1F70895002498E0AA0FDB
:10075E00001C0E1A10F40E0E01C0A1609A95B9F786
:10076E00EA2FA02D0895F1DFEA2F08950590F49158
:10077E00E02D08951B2EBF2FF12D1A2EAE2FE12D39
:10078E000895119602D0FE2F1197E199FECFFF9397
:10079E00FFB7F894AEBBE09AEDB3FFBFFF9108959B
:1007AE00E894EE2309F0689408953A932A931A93E5
:1007BE000A9308953B812A81198108810895099130
:1007CE0019910895AC0F05900D928A95E1F7089551
:00000001FF
