:100000003EC0FECFFDCFFCCFFBCFFACFF9CFF8CF6C
:10001000F7CFF6CFF5CFF4CFF3CFF2CF8BC0F0CF41
:10002000EFCFEECFEDCF20000C000D000F00000051
:10003000000000000400050000000C0009000D0095
:100040000E00060007000100080003000B000F006F
:1000500002000A000400050000000C0009000D0069
:100060000E00060007000100080003000B000F004F
:1000700002000A0008000100030026000000F894B6
:10008000EE27ECBBE5BFF8E1A895A4B7A77FA4BF16
:10009000F1BDE1BD8DE0A2E0BB27ED938A95E9F7C4
:1000A00080E092E0A0E6ED930197E9F7E6E7F0E063
:1000B00085919591009761F0A591B5910590159066
:1000C000BF01F00105900D920197E1F7FB01F0CF20
:1000D000E0E0EAB9E0E0EBB9E0E0ECB9EFE5EDBF74
:1000E000E2E0EEBFC0EED0E08AC2A4D320E030E070
:1000F00007E010E0005010404CF0B5D208F4316039
:10010000B9D209F0330F01501040F4CF0FE010E0E6
:100110000830E0E01E074CF0A6D208F42160ADD212
:1001200009F0220F01501040F3CF3BBB28BB89D30D
:10013000249608950A921A92FA926A937A938A936D
:100140009A93AA93BA93EA93FA93EFB7EA9374D384
:10015000CCDF5394E1E1E51529F5552493D295D2EE
:100160007CF4F801E052FF4FBF010080A0EFB0E047
:10017000A00FB11FEC91E00DDB01EC938AD2EFCF21
:100180003A94332079F47ED280D254F4F801E051CD
:10019000FF4F0F0181D2EC91D001EC937AD2F4CFD2
:1001A000322C222453D3E991EFBFF991E991B9910F
:1001B000A9919991899179916991F99019900990F2
:1001C00018952220F1F7089537D36BD25ED22CF424
:1001D00063D2E0E0EC935DD2F9CF2A8034D323964A
:1001E0000895269784E0A2E0B0E0E8E2F0E031D3A1
:1001F0001FD300E010E02FE030E04EE050E053D29B
:10020000E0E1E0930F01ECE0E0930E01E8E0E09321
:100210000D01E4E0E0930C0149D2D3DFE0E0EE838E
:10022000EF83AE81BF81A038E0E0BE070CF534D289
:1002300040D242D244D2ECEF45D2ECEF48D24DD27C
:100240004FD234D2E0E151D2D80152D28F01D9013C
:100250004FD253D2AF0154D24BD2EA87FB87A88545
:10026000B98546D250D252D23196EE83FF83D9CF90
:1002700023D225D2E0EF26D2E4EF29D2A8EFA08343
:100280002FD214D2F9C0289784E0A4E0B0E0ECE2C9
:10029000F0E0DFD2CDD207D2F5D1F7D134F4D801D6
:1002A00038D207D203D23ED2F8CF8BDF40D242D22F
:1002B00014F5E8D1EAD194F441D2F801AC85BD85BA
:1002C00045D2E0E1F0E0A2D2EE83FF8342D21ED21B
:1002D00047D2A0E1A083EAD125D2ECCFEE8505D2AA
:1002E000AC85BD8505D2EC87FD870AD201D2EA87AD
:1002F000FB8739D2DCCFC6D1C8D12CF41FD229D28A
:10030000D5D110D2F9CF9BD262960895249790D27E
:1003100020E030E04FE050E0B5D1B7D12CF4E0E080
:10032000E0930001B6D1F9CF4CDFE0E1E0930E019C
:10033000E0930F01BBD1B7D144DFE0E0E887E98764
:10034000A885B985D09704F5E0E0EE83EF83AE8110
:10035000BF811E9784F40AD2AFD1B1D1AAD1A6D160
:10036000E4E0C3D1D901C4D1C8D1AF01CFD1319616
:10037000EE83FF83ECCFD901BBD1BFD1AF01E885BC
:10038000F9853196C0D1DCCFF1D1DA01C2D1E0EFED
:10039000EC938CD154D22A9608954CD282D175D147
:1003A00034F4EAD111F478D184D173D1F8CF7ED16D
:1003B000E9D1BDD1BFD104F574D167D154F4DCD1FA
:1003C00019F46AD1E0EF02C067D1E0E1EC9361D1AA
:1003D000F4CF6CD1D7D165D158D154F4CDD119F423
:1003E0005BD1E0E102C058D1E0EFEC9352D1F4CF01
:1003F0005DD1C8D1B8D1DECF45D147D13CF4BCD115
:1004000019F44AD1E0EFEC9344D1F7CF4FD1BAD1F0
:10041000A6C0249784E0B9D1E0E3F0E01AD208D274
:100420002A853B856DD164D1AF013DD12BD10930F7
:10043000E0E01E070CF5C5DE1DD129F08AD166D19A
:100440008FD1A0EFA08319D139F036D138D131D175
:1004500033D1A40FB51F2DD1288739874E835F83F1
:10046000D9011F9695D1D2D148D1AF011FD1E2E079
:10047000EA93AADE0ED1DBCFE2D12C960895A097A5
:1004800080E283D1E4E3F0E0E4D1D4D10CD1FAD01E
:10049000FCD00CF54CD12430E0E03E07ACF4EAD0BF
:1004A00011F079D11AD1EFE0F0E0E017F10739F05F
:1004B000F801DE01149678D153D1A4E0A083E4E0E2
:1004C0002E2E7FDE50D1E7CFD5D019F064D1A0E039
:1004D000A083DFD0DDCFEAD0B4D1A4960895A8815F
:1004E000B981A050BF4FEC81EC93E0D0EA81FDD000
:1004F000269608959FD1D7D008E010E0002400167A
:10050000010664F514D1201731071CF452D12BD108
:10051000FACFF80131979F012050304024F052D19A
:1005200021503040F9CF2FE030E0EFE0F0E0E01B69
:10053000F10BE217F30724F43CD121503040F5CF02
:10054000E8E0F0E0E01BF10B38969F01F3D01CF4DB
:1005500039D109D1FBCF01501040D0CFA7D071D1F4
:1005600026960895A09780E210D1E4E5F0E071D1DD
:1005700063D1E4E0F0E030D1BDDF84D00830E0E0CA
:100580001E071CF47CDF85D0F9CF7CD07ED05CF4D4
:10059000F801DE01129608D11FD13BDFE2E2EA93B7
:1005A00013DE77D0F3CF04E010E00038E0E01E0760
:1005B00034F41A930A93F1DE000F111FF6CFA6DE72
:1005C00061D00430E0E01E0714F463D0FACF219725
:1005D00081E0DBD0E4E7F0E03CD1A881A23050F02C
:1005E000E881F0E0F9D0D4D0F7D04DDEE881E6958F
:1005F000E883F3CF2196F5DD26D1A2960895E0E8B1
:10060000E8BDE0E0E8BDEBBBEFEFEABBE0E0E8BB54
:10061000EFEFE7BBE1E0E5BBE3E0E3BFE0E0E4BB35
:10062000E2BFEEE4E3BBE0E0E2BBE0E1E8BFE0E034
:10063000E9BDE0BFEFBDE7BDE6BDE0B9E5BDEEBD9C
:10064000EDBDECBDEBBDEABDE4BDE5BFEBBFE0E158
:10065000E9BFE0E0EDB9E0E8E8B9E0E0E9B97894B5
:1006600081DFFECFFFCFA0EEB0E0A00FB11FEC9175
:100670005E160895002E012A0895E8E0F0E0E017E4
:10068000F107089500E010E008950031E0E01E0752
:1006900008950F5F1F4F0895A0E0B1E0A00FB11FB4
:1006A00008958FDDEFCFE1E0EA938ECDE1E02E2ECD
:1006B0000895E0E1EC930895A0E0B1E00895A20F61
:1006C000B31F0895EC93F8DFA40FB51F0895EC93C2
:1006D000EA85FB85E050FF4F0895ACEFA0830895B5
:1006E000E885F985E050FF4FF8CFEA936DDD69CDDD
:1006F0001196E0E1F0E08AD008959F01DA01F8CF89
:10070000AA85BB850895E887F9870895EE81FF8162
:1007100008951F96E0E1F0E079D0AF01CDDFA40F9E
:10072000B51F0895E889F9890E0F1F1F089520E06D
:1007300030E008952031E0E03E070895F801E0DF61
:10074000AE0FBF1FE0E1F0E061D0DDCFAE0FBF1F05
:100750000895E885F985E050FF4FA0EFA083089544
:10076000E050FF4F08952F5F3F4F0895A5DFA40F7E
:10077000B51FE0EFEC930895D801E2E0F0E046D039
:1007800030970895EC81EA931FCDA0E0B0E0089582
:10079000E0E1F0E00895F8013197DE011496EE0FE4
:1007A000FF1FD4DF41D0DCCFEE0FFF1FCFDF3CD0E7
:1007B0000895EEDFFA93EA93A9DFFA93EA933A9366
:1007C0002A938DCEE0EFF0E0FA93EA939FDFFA935D
:1007D000EA933A932A9383CEFA93EA930895F19594
:1007E000E195F04008950024112490E1AA0FBB1F69
:1007F000001C111C0E1A1F0A18F40E0E1F1E01C039
:10080000A1609A9599F7FD01D0010895E894B7FF8A
:1008100004C0A095B09511966894F7FDE0DFE3DF82
:10082000FD010EF4DCDF0895ED91FC911197089520
:100830005A934A933A932A931A930A9308955D819F
:100840004C813B812A811981088108950991199170
:100850000895AC0FBD1F05900D928A95E1F708959C
:00000001FF
