:0A00000013C0FECFFDCFFCCFFBCFF5
:10000A00FACF43C0F8CFF7CFF6CFF5CFF4CFF3CF7F
:10001A00F2CFF1CFF0CFEFCFEECFEDCF0000F894D3
:10002A00EE27ECBBE5BFF8E1A895A4B7A77FA4BF6C
:10003A00F1BDE1BD8DE0A2E0BB27ED938A95E9F71A
:10004A0080E092E0A0E6ED930197E9F7E6E2F0E0BE
:10005A0085919591009761F0A591B59105901590BC
:10006A00BF01F00105900D920197E1F7FB01F0CF76
:10007A00E0E0EAB9E0E0EBB9E0E0ECB9EFE5EDBFCA
:10008A00E2E0EEBFC0EED0E03DC00A921A929A9327
:10009A00AA93BA93EA93FA93EFB7EA9386D0F10157
:1000AA0031961F0187D0D8D0B4F484D0E6E9F0E0C5
:1000BA00B7D0309729F47ED0A93BEBE0BE070CF00D
:1000CA0002C0DA9801C0DA9AE091E000F091E1000A
:1000DA00319775D001C0DA98E991EFBFF991E991AA
:1000EA00B991A991999119900990189522243324CC
:1000FA00A881B981EAE0F0E07BD02E163F06C4F36E
:10010A002296089500E010E01DD0B09919C0DA9A3D
:10011A00E0EAFCE854D0EEE4F2E051D0E1E0F0E0AD
:10012A00FA93EA93E3DFB0990BC0E0E0E093E000D2
:10013A00E093E100DA98E2E0F0E0FA93EA93D6DF9E
:10014A00E4CFFFCFE0E8E8BDE0E0E8BDE2E0EBBBEA
:10015A00EFEFEABBEFE0E8BBE0E0E7BBE0E8E5BBD6
:10016A00E4E0E3BF22D0E0E0E3BBE2BBE9BDE0BFED
:10017A00EFE0EFBDE0E0E7BDE6BDE0B9E5BDEFEEDB
:10018A00EEBDE0E0EDBDECBDEFEFEBBDE0E0EABDBA
:10019A00E4BDE5BFEBBFE2E0E9BFE0E0EDB9E0E8CE
:1001AA00E8B9E0E0E9B978940895E3EFE4BBEAEC52
:1001BA00E2BF0895A091E000B091E1000895E093B4
:1001CA00E000F093E1000895F195E195F04008957B
:1001DA000A2E1B2E81E1AA27BB1B05C010F4A00D15
:1001EA00B11DB695A795F795E7958A95B9F708953C
:1001FA0025D0EEDF0EF4E8DF08950024112490E103
:10020A00AA0FBB1F001C111C0E1A1F0A18F40E0E8F
:10021A001F1E01C0A1609A9599F7FD01D0010895AA
:10022A00E894B7FF04C0A095B09511966894F7FDBD
:10023A00CBDFE3DFFD010EF4C7DF0895E894F7FF93
:10024A0002C0C2DF6894B7FF06C0A095B0951196A8
:10025A0000F8039400FA089500240A160B0608957C
:00000001FF
