:0A0000000C9450000C9400000C94C6
:10000A0000000C9400000C9400000C9400000C9466
:10001A0000000C94E4000C9400000C9400000C9472
:10002A0000000C9400000C9400000C9400000C9446
:10003A0000000C9400000C9400000C9400000C9436
:10004A0000000C9400000C9400001027E8036400E0
:10005A000A00010000100001100001000000000069
:10006A002B2B2B004154434E0D004547486F6D65BD
:10007A000D00526561647900310030004154434EED
:10008A000048656C6C6F0000010002006600020007
:10009A00080068000000F894EE27ECBBF1E0FBBF13
:1000AA00EBBFE5BFF8E1F1BDE1BD8DE0A2E0BB2702
:1000BA00ED938A95E9F780E094E0A0E6ED93019745
:1000CA00E9F7E2E9F0E085919591009761F0A59151
:1000DA00B59105901590BF01F00105900D92019719
:1000EA00E1F7FB01F0CFEFE5EDBFE4E0EEBFC0E6DC
:1000FA00D1E00C949A01E82DE03081F4A881AF3464
:10010A0011F4E1E08E2EA881A13311F4E3E08E2EE2
:10011A00A881A33511F4E5E08E2E4FC0E13041F4F9
:10012A00A881AB3419F4E2E08E2E01C0882445C0C0
:10013A00E23041F4A881AD3019F4E1E06E2E9E2E32
:10014A0088243BC0E33041F4A881A83319F4E4E0E1
:10015A008E2E01C0882431C0E43049F4A881AD3024
:10016A0021F4E2E06E2EE1E09E2E882426C0E530DE
:10017A0079F4A881A13319F4E6E08E2E08C0A8818B
:10018A00A03321F4E7E08E2E0C94C101882415C017
:10019A00E63049F4A881AD3021F4E3E06E2EE1E0C7
:1001AA009E2E88240AC0E73041F4A881AD3021F49C
:1001BA00E4E06E2EE1E09E2E88240C94C1010A929E
:1001CA001A92FA926A937A938A939A93AA93BA930F
:1001DA00EA93FA93EFB7EA931A930A931BB10CB115
:1001EA00E12FEC7199F4E52DF0E0E05AFE4F00831F
:1001FA005394E8E0E51509F455247394E8E0E7150B
:10020A0019F47724689420F80A9375DF09911991F3
:10021A00E991EFBFF991E991B991A99199918991E0
:10022A0079916991F9901990099018951A93772004
:10023A00F1F3E42DF0E0E05AFE4F10814394E8E038
:10024A00E41509F44424F8947A947894E12F5BC075
:10025A00E0E8E6BDE0E0E6BDEBBBEABBE8BBEFEFFA
:10026A00E7BBE0E0E2BBE1BBE0BFE3BFE2BFE6BF62
:10027A00ECBFEFBDEEBDEDBDECBDE5BDE4BDEBBD34
:10028A00EABDE9BDE8BDEBBFE5BFE9BFEDB9EBB932
:10029A00E8E9EAB9E6E0E3B9E0E0E2B9E3E3E9B9BB
:1002AA00E0E8E8B978940895A881EFEFEA1BEBBB80
:1002BA0063C0E881F981E491E03059F0E881F9817D
:1002CA00E491EA9355D0E881F9813196E883F9837C
:1002DA00F0CF229608959920F1F3992408951A935C
:1002EA00E0E0EA93E1DF0E94D701EAE6F0E00E944B
:1002FA00DD01E1E0E61519F4EFE1EA93D5DFEEE678
:10030A00F0E00E94DD0119910895EFEFEBBBE4E7FD
:10031A00F0E00E94E301EEEFEBBB7720F1F3EDEFA3
:10032A00EBBBD9DF0E94E701089510E091DF1F5F60
:10033A0018BB0E94E701FBCFCEDFE3E0E61531F4FC
:10034A00E2E8F0E00E94E301EFEF08C0E4E0E6151E
:10035A0039F4E4E8F0E00E94E301E0E0EA93A4DF84
:10036A00EBCF64DF1E2F1BBB1A9302D0FACFFFCF4D
:10037A005D9BFECFE881ECB9219608951A93E98135
:10038A00FA813196E983FA833197E4911E2FE0309E
:10039A0019F01A93EDDFF3CFEAE0EA93E9DF188167
:1003AA0023960895E8EEF3E0FA93EA930C94F101A8
:1003BA00FA93EA930E945E010C947001FA93EA930D
:1003CA000C94C301E2E3F0E0FA93EA930C94F1018E
:1003DA00EBE2EA930C94BD01E991F991309639F078
:1003EA0080ED97E00197F1F7A8953197C9F708953D
:00000001FF
